:1000000072C000009EC000009CC000009AC00000AA
:1000100098C0000096C0000094C0000092C000008C
:1000200090C000008EC000008CC000008AC000009C
:1000300088C0000086C0000084C0000082C00000AC
:1000400080C000007EC000007CC000007AC00000BC
:1000500078C0000076C0000074C0000033C2000009
:1000600070C00000F9C10000CEC100006AC00000ED
:1000700068C0000066C0000064C0000062C00000EC
:1000800060C000005EC000005CC000005AC00000FC
:1000900058C0000056C0000054C0000052C000000C
:1000A00050C000004EC000004CC000004AC000001C
:1000B00048C0000046C0000044C0000042C000002C
:1000C00040C000003EC000003CC000003AC000003C
:1000D00038C0000036C0000034C0000032C000004C
:1000E00030C00000820311241FBECFEFD1E2DEBF7B
:1000F000CDBF00E00CBF12E0A0E0B2E0E2E7F7E025
:1001000000E00BBF02C007900D92A032B107D9F7F3
:1001100022E0A0E2B2E001C01D92A63CB207E1F7E6
:1001200010E0C3E7D0E000E005C021970109802F6F
:10013000FE0115D3C237D10780E00807B1F70CD212
:1001400016C35ECFAF92BF92CF92DF92EF92FF9233
:100150000F931F93CF93DF936C017B018B01040FEF
:10016000151FEB015E01AE18BF08C017D10759F08B
:100170006991D601ED91FC910190F081E02DC601CD
:100180001995892B79F7C501DF91CF911F910F91B7
:10019000FF90EF90DF90CF90BF90AF900895FC015B
:1001A000538D448D252F30E0842F90E0821B930BDC
:1001B000541710F0CF96089501970895FC01918D82
:1001C000828D981761F0A28DAE0FBF2FB11D5D9685
:1001D0008C91928D9F5F9F73928F90E008958FEF27
:1001E0009FEF0895FC01918D828D981731F0828DDB
:1001F000E80FF11D858D90E008958FEF9FEF089532
:10020000FC01918D228D892F90E0805C9F4F821B95
:1002100091098F739927089589E292E0F1DF21E037
:10022000892B09F420E0822F0895FC01A48DA80FEA
:10023000B92FB11DA35ABF4F2C91848D90E0019628
:100240008F739927848FA689B7892C93A089B18948
:100250008C91837080648C93938D848D981306C0E9
:100260000288F389E02D80818F7D80830895EF924D
:10027000FF920F931F93CF93DF93EC0181E0888F60
:100280009B8D8C8D98131AC0E889F989808185FF30
:1002900015C09FB7F894EE89FF896083E889F989D2
:1002A00080818370806480839FBF81E090E0DF91D4
:1002B000CF911F910F91FF90EF900895F62E0B8D27
:1002C00010E00F5F1F4F0F731127E02E8C8D8E11E2
:1002D0000BC00FB607FCFACFE889F989808185FF4A
:1002E000F5CFCE01A2DFF2CFEB8DEC0FFD2FF11D8C
:1002F000E35AFF4FF0829FB7F8940B8FEA89FB898E
:1003000080818062D0CFCF93DF93EC01888D8823EA
:10031000B1F0AA89BB89E889F9898C9185FD03C070
:10032000808186FD0CC00FB607FCF7CF8C9185FF4E
:10033000F2CF808185FFEDCFCE0177DFEACFDF916D
:10034000CF91089580E090E0892B21F065DF811145
:100350000E94000080E090E0892B49F080E090E06E
:10036000892B29F00E94000081110E94000080E08A
:1003700090E0892B49F080E090E0892B29F00E94E1
:10038000000081110E94000080E090E0892B49F07C
:1003900080E090E0892B29F00E94000081110C94EC
:1003A000000008953FB7F8948091250290912602AD
:1003B000A0912702B091280226B5A89B05C02F3F27
:1003C00019F00196A11DB11D3FBFBA2FA92F982F7B
:1003D0008827BC01CD01620F711D811D911D42E076
:1003E000660F771F881F991F4A95D1F70895FC0162
:1003F00001900020E9F73197AF01481B590BBC0170
:1004000089E292E09FCE1F920F920FB60F921124B5
:100410000BB60F922F933F934F935F936F937F93FE
:100420008F939F93AF93BF93EF93FF9389E292E0F3
:10043000FCDEFF91EF91BF91AF919F918F917F91E2
:100440006F915F914F913F912F910F900BBE0F9045
:100450000FBE0F901F9018951F920F920FB60F921C
:1004600011240BB60F922F938F939F93EF93FF93CB
:10047000E0913902F0913A028081E0913F02F091DF
:10048000400282FD1DC09081809142028F5F8F7378
:1004900020914302821741F0E0914202F0E0E75DD3
:1004A000FD4F958F80934202FF91EF919F918F9125
:1004B0002F910F900BBE0F900FBE0F901F901895AD
:1004C0008081F2CF1F920F920FB60F9211242F93BB
:1004D0003F938F939F93AF93BF938091210290910D
:1004E0002202A0912302B09124023091200223E045
:1004F000230F2D3758F50196A11DB11D2093200221
:100500008093210290932202A0932302B0932402AD
:100510008091250290912602A0912702B091280295
:100520000196A11DB11D8093250290932602A093F0
:100530002702B0932802BF91AF919F918F913F9175
:100540002F910F900FBE0F901F90189526E8230F44
:100550000296A11DB11DD2CF789484B5826084BD6E
:1005600084B5816084BD85B5826085BD85B58160B7
:1005700085BD80916E00816080936E001092810035
:1005800080918100826080938100809181008160F0
:1005900080938100809180008160809380008091B1
:1005A000B10084608093B1008091B000816080933D
:1005B000B0008091910082608093910080919100C1
:1005C0008160809391008091900081608093900081
:1005D0008091A10082608093A1008091A100816040
:1005E0008093A1008091A00081608093A000809101
:1005F000210182608093210180912101816080939B
:1006000021018091200181608093200180917A00F6
:10061000846080937A0080917A00826080937A006F
:1006200080917A00816080937A0080917A0080685E
:1006300080937A001092C100E0913902F0913A0261
:1006400082E08083E0913502F09136021082E091E1
:100650003702F09138028FEC808310924102E091D2
:100660003D02F0913E0286E08083E0913B02F091F2
:100670003C02808180618083E0913B02F0913C02EA
:10068000808188608083E0913B02F0913C02808110
:1006900080688083E0913B02F0913C0280818F7DF5
:1006A000808382E192E0A3DE8CE192E0A0DE82E131
:1006B00092E09DDE8CE192E09ADE74DE4B015C01FB
:1006C00088EEC82E83E0D82EE12CF12C6BDE681961
:1006D00079098A099B09683E734081059105B0F349
:1006E00021E0C21AD108E108F10888EE880E83E003
:1006F000981EA11CB11CC114D104E104F10431F70E
:1007000021DECFCFE9E2F2E01382128288EE93E09D
:10071000A0E0B0E084839583A683B78384E092E071
:100720009183808385EC90E09587848784EC90E0CA
:100730009787868780EC90E0918B808B81EC90E0AE
:10074000938B828B82EC90E0958B848B86EC90E08F
:10075000978B868B118E128E138E148E0895EE0F4A
:10076000FF1F881F8BBF0790F691E02D1994F89416
:02077000FFCFB9
:10077200000000003701A200CF0083010001DE006B
:10078200F200536F6D657468696E67000D0A0000B0
:00000001FF
