:1000000002C1000021C100001FC100001DC100008D
:100010001BC1000019C1000017C1000015C100007C
:1000200013C1000011C100000FC100000DC100008C
:100030000BC1000009C1000007C1000005C100009C
:1000400003C1000001C10000FFC00000FDC00000AE
:10005000FBC00000F9C00000F7C00000BBC20000F8
:10006000F3C00000F1C00000EFC00000EDC00000D0
:10007000EBC00000E9C00000E7C00000E5C00000E0
:10008000E3C00000E1C00000DFC00000DDC00000F0
:10009000DBC00000D9C00000D7C00000D5C0000000
:1000A000D3C00000D1C00000CFC00000CDC0000010
:1000B000CBC00000C9C00000C7C00000C5C0000020
:1000C000C3C00000C1C00000BFC00000BDC0000030
:1000D000BBC00000B9C00000B7C00000B5C0000040
:1000E000B3C0000000002100240027002A002D00DA
:1000F0003000330001010000040107010A01000083
:100100002200250028002B002E00310034000201BF
:100110000000050108010B0100002000230026005B
:1001200029002C002F00320000010000030106010D
:10013000090105050505070508080808020202026D
:100140000A0A080804040404010101010101010173
:100150000303030303030303040707070C0C0C0C3E
:100160000C0C0C0C02020202060606060606060627
:100170000B0B0B0B0B0B0B0B0102102020080810B4
:100180002040102040800201020108040201010207
:1001900004081020408080402010080402018004E0
:1001A000020180402010080402010804020101023B
:1001B0000408102040800102040810204080000044
:1001C0000A0B02090C0D0E080703040100000000D1
:1001D000000000000000000000000000000000001F
:1001E00000000000000000000000121110000000DC
:1001F00000000000000000000000000000000000FF
:1002000000000000350511241FBECFEFD1E2DEBF94
:10021000CDBF00E00CBF22E0A0E0B2E001C01D9223
:10022000A437B207E1F711E0C3E0D1E000E005C078
:1002300021970109802FFE019BD4C230D10780E0B5
:100240000807B1F777D29CC4DBCE8150823108F029
:1002500059C0E82FF0E08827E05DFE4F8F4F88C43B
:1002600050015401420148014C01820157015D01D6
:10027000610167016B016F017501790182017D01E7
:1002800083018701809180008F778093800008959B
:10029000809180008F7DF9CF80918000877FF5CF9E
:1002A00084B58F7784BD089584B58F7DFBCF809111
:1002B000B0008F778093B00008958091B0008F7D5B
:1002C000F9CF809190008F7780939000089580916E
:1002D00090008F7DF9CF80919000877FF5CF80913E
:1002E000A0008F778093A00008958091A0008F7D5B
:1002F000F9CF8091A000877FF5CF809120018F7783
:10030000809320010895809120018F7DF9CF809105
:100310002001877FF5CFCF93DF93282F30E0F901BD
:10032000E254FE4F8491F901E858FE4FD491F9014F
:10033000EE5CFE4FC491CC2399F0811186DFEC2F47
:10034000F0E0EE0FFF1FE85EFE4FA591B491EC9137
:10035000ED2381E090E009F480E0DF91CF910895F2
:1003600080E090E0FACF1F93CF93DF93282F30E007
:10037000F901E254FE4F8491F901E858FE4FD491FF
:10038000F901EE5CFE4FC491CC23A1F0162F811130
:100390005CDFEC2FF0E0EE0FFF1FE250FF4FA59166
:1003A000B4918FB7F894EC91111108C0D095DE2369
:1003B000DC938FBFDF91CF911F910895DE2BF8CF93
:1003C0003FB7F8948091010290910202A09103023C
:1003D000B091040226B5A89B05C02F3F19F00196E5
:1003E000A11DB11D3FBFBA2FA92F982F8827BC018F
:1003F000CD01620F711D811D911D42E0660F771FB7
:10040000881F991F4A95D1F708958F929F92AF92B6
:10041000BF92CF92DF92EF92FF924B015C01D0DF4F
:100420006B017C01CDDF6C197D098E099F09683E47
:10043000734081059105B0F321E0821A9108A1086B
:10044000B10888EEC80E83E0D81EE11CF11C8114AF
:100450009104A104B10431F7FF90EF90DF90CF90A9
:10046000BF90AF909F908F900895CF93DF93EC0152
:100470008989813029F0823081F0DF91CF91089510
:100480001A8E89859A85AB85BC850196A11DB11D03
:100490008D879E87AF87B88BF0CF8F8198852D8110
:1004A0003E81820F931F8530910514F598878F83C5
:1004B0008F8198851816190624F084E090E09887BB
:1004C0008F838F8198858230910551F1A4F4019733
:1004D000E1F0888D998D092E000CAA0BBB0B498584
:1004E0005A856B857C85840F951FA61FB71FD0CFBB
:1004F00081E090E0DBCF83309105F9F0049749F774
:1005000061E0888130DF60E004C060E088812BDF3B
:1005100061E0898128DF61E08A8125DF60E00AC02F
:1005200060E0888120DF61E089811DDF60E08A81F1
:100530001ADF61E08B8117DFCCCF61E0888113DFA8
:1005400060E0F2CF1F93CF93DF93EC012FB7F894C5
:100550008091050290910602A0910702B0910802D5
:100560002FBF88839983AA83BB834C815D816E8171
:100570007F8184179507A607B70728F019851130E2
:1005800031F01230C1F0DF91CF911F91089588852D
:10059000C2DE488159816A817B81892BB1F41A8737
:1005A00082E089874C5E5F4F6F4F7F4F4C835D8346
:1005B0006E837F83E8CF8885AEDE488159816A816A
:1005C0007B81019711F481E0ECCF4F5F5F4F6F4F5C
:1005D0007F4FECCF1F920F920FB60F9211242F93E3
:1005E0003F938F939F93AF93BF9380910502909118
:1005F0000602A0910702B09108023091000223E0A8
:10060000230F2D3758F50196A11DB11D209300022F
:100610008093050290930602A0930702B09308020C
:100620008091010290910202A0910302B091040214
:100630000196A11DB11D8093010290930202A09327
:100640000302B0930402BF91AF919F918F913F91AC
:100650002F910F900FBE0F901F90189526E8230F33
:100660000296A11DB11DD2CFCF93DF9390E0FC0184
:10067000E858FE4F24918E5C9E4FFC0184918823A4
:10068000D1F090E0880F991FFC01EC51FF4FA5912C
:10069000B491FC01E250FF4FC591D491623071F4E6
:1006A0009FB7F8943C91822F809583238C93E881A7
:1006B0002E2B28839FBFDF91CF9108958FB7F89499
:1006C000EC912E2B2C938FBFF6CFEF920F93CF93FD
:1006D000DF93EC018E2DE1E0F0E0FE83ED83F887FF
:1006E000EF8391E0998BEAE0F0E0FB8BEA8B1D8AC7
:1006F0001C8A1F8A1E8AE4E6F0E0F98FE88F1A8EC2
:10070000688349832A830B83EC8261E0ADDF61E07B
:100710008881AADF61E08981A7DF61E08A81A4DFA7
:1007200061E08B81A1DF61E08C81DF91CF910F913E
:10073000EF9019CE789484B5826084BD84B58160D1
:1007400084BD85B5826085BD85B5816085BD80919C
:100750006E00816080936E00109281008091810014
:10076000826080938100809181008160809381000C
:10077000809180008160809380008091B1008460CE
:100780008093B1008091B00081608093B00080912F
:1007900091008260809391008091910081608093AC
:1007A0009100809190008160809390008091A100E1
:1007B00082608093A1008091A10081608093A1005C
:1007C0008091A00081608093A000809121018260CF
:1007D000809321018091210181608093210180918A
:1007E000200181608093200180917A008460809351
:1007F0007A0080917A00826080937A0080917A00FA
:10080000816080937A0080917A00806880937A007A
:100810001092C10089EA90E09093570280935602AB
:1008200000E010E02FB7F894809105029091060245
:10083000A0910702B09108022FBF809362029093AB
:100840006302A0936402B0936502409166025091E6
:100850006702609168027091690284179507A60784
:10086000B70718F089E592E000DE2FB7F894809181
:10087000050290910602A0910702B09108022FBFD5
:100880008093470290934802A0934902B0934A0292
:1008900040914B0250914C0260914D0270914E027A
:1008A00084179507A607B70718F08EE392E0DDDD01
:1008B00083E392E047DE88E292E044DE8DE192E05D
:1008C00041DE82E192E03EDEC0E090910902EFEF6E
:1008D000EC0FE93078F4F0E08827EF58FB4F8F4FAA
:1008E00047C1B704CC04E504F6040705140529053F
:1008F0002B05300561E0892F36DD61E080910A0229
:1009000032DD61E080910B022EDD61E080910C020E
:100910002ADD61E080910D0226DD61E080910E020A
:1009200022DD60E080910F021EDD61E08091110206
:100930001ADD64EF71E080E090E067DD60E08091B7
:10094000110211DD64EF71E080E090E05EDDCF5FC9
:10095000CA3009F0BACF63E070E080E090E055DD86
:100960000115110509F45ECF0E9400005BCF60E025
:10097000892FF9DC61E080910A02F5DC61E0809169
:100980000B02F1DC60E080910C02EDDC60E0809114
:100990000D02E9DC60E0C2CF61E0892FE4DC61E0B8
:1009A00080910A02E0DC60E080910B02DCDC61E017
:1009B00080910C02D8DC61E080910D02D4DC60E013
:1009C00080910E02D0DC61E0ADCF61E0892FCBDCFD
:1009D00061E080910A02C7DC61E080910B02C3DC18
:1009E00061E080910C02BFDC60E0E6CF60E0892F1F
:1009F000BADC61E080910A02B6DC61E080910B0212
:100A0000B2DC60E080910C02AEDC60E01DC061E011
:100A1000892FA9DC60E080910A02A5DC61E0809169
:100A20000B02A1DC61E0EECF61E0892F9CDC60E08D
:100A300080910A0298DC61E080910B0294DC61E015
:100A400080910C0290DC61E080910D028CDC61E011
:100A5000B7CF61E08DCF61E0892F85DC61E0E8CF21
:100A600061E0892F80DC61E0D6CFEF920F931F9376
:100A7000CF93DF9385E0E82E04E023E042E061E0DD
:100A800089E592E022DE9CE0E92E0BE02AE049E0D5
:100A900068E08EE392E019DE03E312E0C1E0F801C2
:100AA000C18712868EE0808762E0DEDDF801C187B3
:100AB000148215821682178208E212E0F801C187BB
:100AC00012868FE0808762E0CFDDF801C187148253
:100AD0001582168217820DE112E0F801C187128695
:100AE00087E0808762E0C0DDF801C187148215824B
:100AF0001682178202E112E0F801C187128686E0B1
:100B0000808762E0B1DDF801C18714821582168208
:100B10001782C9E0D2E08EE388838FE3898380E483
:100B20008A8381E48B8382E48C8383E48D8384E4F1
:100B30008E8387E3888761E08EE396DD61E08981BB
:100B400093DD61E08A8190DD61E08B818DDD61E084
:100B50008C818ADD61E08D8187DD61E08E8184DDBD
:100B600061E08885DF91CF911F910F91EF907CCD4F
:100B7000EE0FFF1F881F8BBF0790F691E02D199491
:040B8000F894FFCF17
:00000001FF
