:1000000002C1000021C100001FC100001DC100008D
:100010001BC1000019C1000017C1000015C100007C
:1000200013C1000011C100000FC100000DC100008C
:100030000BC1000009C1000007C1000005C100009C
:1000400003C1000001C10000FFC00000FDC00000AE
:10005000FBC00000F9C00000F7C000008BC2000028
:10006000F3C00000F1C00000EFC00000EDC00000D0
:10007000EBC00000E9C00000E7C00000E5C00000E0
:10008000E3C00000E1C00000DFC00000DDC00000F0
:10009000DBC00000D9C00000D7C00000D5C0000000
:1000A000D3C00000D1C00000CFC00000CDC0000010
:1000B000CBC00000C9C00000C7C00000C5C0000020
:1000C000C3C00000C1C00000BFC00000BDC0000030
:1000D000BBC00000B9C00000B7C00000B5C0000040
:1000E000B3C0000000002100240027002A002D00DA
:1000F0003000330001010000040107010A01000083
:100100002200250028002B002E00310034000201BF
:100110000000050108010B0100002000230026005B
:1001200029002C002F00320000010000030106010D
:10013000090105050505070508080808020202026D
:100140000A0A080804040404010101010101010173
:100150000303030303030303040707070C0C0C0C3E
:100160000C0C0C0C02020202060606060606060627
:100170000B0B0B0B0B0B0B0B0102102020080810B4
:100180002040102040800201020108040201010207
:1001900004081020408080402010080402018004E0
:1001A000020180402010080402010804020101023B
:1001B0000408102040800102040810204080000044
:1001C0000A0B02090C0D0E080703040100000000D1
:1001D000000000000000000000000000000000001F
:1001E00000000000000000000000121110000000DC
:1001F00000000000000000000000000000000000FF
:1002000000000000A20411241FBECFEFD1E2DEBF28
:10021000CDBF00E00CBF22E0A0E0B2E001C01D9223
:10022000A437B207E1F711E0C3E0D1E000E005C078
:1002300021970109802FFE0108D4C230D10780E048
:100240000807B1F747D209C4DBCE8150823108F0EC
:1002500059C0E82FF0E08827E05DFE4F8F4FF5C3CF
:1002600050015401420148014C01820157015D01D6
:10027000610167016B016F017501790182017D01E7
:1002800083018701809180008F778093800008959B
:10029000809180008F7DF9CF80918000877FF5CF9E
:1002A00084B58F7784BD089584B58F7DFBCF809111
:1002B000B0008F778093B00008958091B0008F7D5B
:1002C000F9CF809190008F7780939000089580916E
:1002D00090008F7DF9CF80919000877FF5CF80913E
:1002E000A0008F778093A00008958091A0008F7D5B
:1002F000F9CF8091A000877FF5CF809120018F7783
:10030000809320010895809120018F7DF9CF809105
:100310002001877FF5CFCF93DF93282F30E0F901BD
:10032000E254FE4F8491F901E858FE4FD491F9014F
:10033000EE5CFE4FC491CC2399F0811186DFEC2F47
:10034000F0E0EE0FFF1FE85EFE4FA591B491EC9137
:10035000ED2381E090E009F480E0DF91CF910895F2
:1003600080E090E0FACF1F93CF93DF93282F30E007
:10037000F901E254FE4F8491F901E858FE4FD491FF
:10038000F901EE5CFE4FC491CC23A1F0162F811130
:100390005CDFEC2FF0E0EE0FFF1FE250FF4FA59166
:1003A000B4918FB7F894EC91111108C0D095DE2369
:1003B000DC938FBFDF91CF911F910895DE2BF8CF93
:1003C0003FB7F89480910A0290910B02A0910C0221
:1003D000B0910D0226B5A89B05C02F3F19F00196DC
:1003E000A11DB11D3FBFBA2FA92F982F8827BC018F
:1003F000CD01620F711D811D911D42E0660F771FB7
:10040000881F991F4A95D1F70895CF93DF93EC0188
:100410008881813029F0823081F0DF91CF91089579
:100420001A8E89819A81AB81BC810196A11DB11D73
:100430008D839E83AF83B887F0CF888999892E8575
:100440003F85820F931F8530910514F5998B888B1A
:10045000888999891816190624F084E090E0998B10
:10046000888B888999898230910551F1A4F401978C
:10047000E1F0888D998D092E000CAA0BBB0B4981E8
:100480005A816B817C81840F951FA61FB71FD0CF27
:1004900081E090E0DBCF83309105F9F0049749F7D4
:1004A00061E0898560DF60E004C060E089855BDF32
:1004B00061E08A8558DF61E08B8555DF60E00AC026
:1004C00060E0898550DF61E08A854DDF60E08B85E3
:1004D0004ADF61E08C8547DFCCCF61E0898543DF6F
:1004E00060E0F2CF1F93CF93DF93EC012FB7F89426
:1004F00080910E0290910F02A0911002B091110212
:100500002FBF89839A83AB83BC834D815E816F81CA
:10051000788584179507A607B70728F0188111304A
:1005200031F01230E9F0DF91CF911F910895898564
:10053000F2DE49815A816B817C81019749F44F5FDA
:100540005F4F6F4F7F4F4D835E836F837887EBCF15
:100550001A8782E088834C5E5F4F6F4F7F4FF3CFE7
:100560008985D9DE49815A816B817C81892B39F358
:1005700081E0F0CF1F920F920FB60F9211242F93AC
:100580003F938F939F93AF93BF9380910E0290916F
:100590000F02A0911002B09111023091090223E0E4
:1005A000230F2D3758F50196A11DB11D2093090287
:1005B00080930E0290930F02A0931002B093110249
:1005C00080910A0290910B02A0910C02B0910D0251
:1005D0000196A11DB11D80930A0290930B02A09376
:1005E0000C02B0930D02BF91AF919F918F913F91FB
:1005F0002F910F900FBE0F901F90189526E8230F94
:100600000296A11DB11DD2CFCF93DF9390E0FC01E4
:10061000E858FE4F24918E5C9E4FFC018491882304
:10062000D1F090E0880F991FFC01EC51FF4FA5918C
:10063000B491FC01E250FF4FC591D491623071F446
:100640009FB7F8943C91822F809583238C93E88107
:100650002E2B28839FBFDF91CF9108958FB7F894F9
:10066000EC912E2B2C938FBFF6CFEF920F93CF935D
:10067000DF93EC018E2D91E09883E1E0F0E0FF87BD
:10068000EE87F98BE88BEAE0F0E0FB8BEA8B1D8AC2
:100690001C8A1F8A1E8AE4E6F0E0F98FE88F1A8E22
:1006A00069874A872B870C87ED8661E0ADDF61E0C3
:1006B0008985AADF61E08A85A7DF61E08B85A4DFF9
:1006C00061E08C85A1DF61E08D85DF91CF910F9195
:1006D000EF9049CE789484B5826084BD84B5816002
:1006E00084BD85B5826085BD85B5816085BD8091FD
:1006F0006E00816080936E00109281008091810075
:10070000826080938100809181008160809381006C
:10071000809180008160809380008091B10084602E
:100720008093B1008091B00081608093B00080918F
:10073000910082608093910080919100816080930C
:100740009100809190008160809390008091A10041
:1007500082608093A1008091A10081608093A100BC
:100760008091A00081608093A0008091210182602F
:1007700080932101809121018160809321018091EA
:10078000200181608093200180917A0084608093B1
:100790007A0080917A00826080937A0080917A005A
:1007A000816080937A0080917A00806880937A00DB
:1007B0001092C10089EA90E090935702809356020C
:1007C00080E0C82E80E0D82ED2E0C1E001E010E049
:1007D000EE24EA94FE2C2FB7F89480910E029091AB
:1007E0000F02A0911002B09111022FBF80935A0204
:1007F00090935B02A0935C02B0935D0240915E0215
:1008000050915F02609160027091610284179507B8
:10081000A607B70718F089E592E0F7DD2FB7F8943F
:1008200080910E0290910F02A0911002B0911102DE
:100830002FBF80933F0290934002A0934102B09358
:1008400042024091430250914402609145027091EE
:10085000460284179507A607B70718F08EE392E0C3
:10086000D4DD83E392E03EDE88E292E03BDE8DE180
:1008700092E038DE82E192E035DE80913D0288230D
:1008800059F010923D0280917302882309F446C00A
:10089000C09359021092730280913202882361F052
:1008A0001092320280916702909168020197D9F507
:1008B000F0926802E092670280912702882351F04B
:1008C0001092270280915802882391F1C0933E0232
:1008D0001092580280911C02882361F010921C0231
:1008E00080914C0290914D02019739F5F0924D02A2
:1008F000E0924C0265DD4B015C0162DD681979090B
:100900008A099B09683E734081059105B0F3C114C3
:10091000D10409F460CF0E9400005DCFD09359024A
:10092000C0937302B9CF1093680200936702C4CFDB
:10093000D0933E02C0935802CDCF10934D02009346
:100940004C02D8CFEF920F931F93CF93DF9385E0A4
:10095000E82E04E023E042E061E089E592E085DEF4
:100960009CE0E92E0BE02AE049E068E08EE392E0AB
:100970007CDE03E312E0C1E0F801C08312868EE062
:10098000818762E041DEF801C083158216821782FA
:10099000108608E212E0F801C08312868FE081879A
:1009A00062E032DEF801C08315821682178210865B
:1009B0000DE112E0F801C083128687E0818762E0D2
:1009C00023DEF801C083158216821782108602E1A9
:1009D00012E0F801C083128686E0818762E014DEAF
:1009E000F801C0831582168217821086C0E0D2E01B
:1009F0008EE388838FE3898380E48A8381E48B8319
:100A000082E48C8383E48D8384E48E8387E3888708
:100A100061E08EE3F9DD61E08981F6DD61E08A81E4
:100A2000F3DD61E08B81F0DD61E08C81EDDD61E083
:100A30008D81EADD61E08E81E7DD61E08885DF910F
:100A4000CF911F910F91EF90DFCDEE0FFF1F881F09
:0E0A50008BBF0790F691E02D1994F894FFCF1C
:00000001FF
