:1000000072C000009EC000009CC000009AC00000AA
:1000100098C0000096C0000094C0000092C000008C
:1000200090C000008EC000008CC000008AC000009C
:1000300088C0000086C0000084C0000082C00000AC
:1000400080C000007EC000007CC000007AC00000BC
:1000500078C0000076C0000074C0000093C20000A9
:1000600070C0000059C200002EC200006AC000002B
:1000700068C0000066C0000064C0000062C00000EC
:1000800060C000005EC000005CC000005AC00000FC
:1000900058C0000056C0000054C0000052C000000C
:1000A00050C000004EC000004CC000004AC000001C
:1000B00048C0000046C0000044C0000042C000002C
:1000C00040C000003EC000003CC000003AC000003C
:1000D00038C0000036C0000034C0000032C000004C
:1000E00030C00000F20311241FBECFEFD1E2DEBF0B
:1000F000CDBF00E00CBF13E0A0E0B2E0E6E9F8E01D
:1001000000E00BBF02C007900D92AE3CB107D9F7DB
:1001100024E0AEECB3E001C01D92A437B207E1F7D2
:1001200010E0C3E7D0E000E005C021970109802F6F
:10013000FE01A7D3C237D10780E00807B1F76CD220
:10014000A8C35ECFAF92BF92CF92DF92EF92FF92A1
:100150000F931F93CF93DF936C017B018B01040FEF
:10016000151FEB015E01AE18BF08C017D10759F08B
:100170006991D601ED91FC910190F081E02DC601CD
:100180001995892B79F7C501DF91CF911F910F91B7
:10019000FF90EF90DF90CF90BF90AF900895FC015B
:1001A000538D448D252F30E0842F90E0821B930BDC
:1001B000541710F0CF96089501970895FC01918D82
:1001C000828D981761F0A28DAE0FBF2FB11D5D9685
:1001D0008C91928D9F5F9F73928F90E008958FEF27
:1001E0009FEF0895FC01918D828D981731F0828DDB
:1001F000E80FF11D858D90E008958FEF9FEF089532
:10020000FC01918D228D892F90E0805C9F4F821B95
:1002100091098F739927089587ED93E0F1DF21E02D
:10022000892B09F420E0822F0895FC01A48DA80FEA
:10023000B92FB11DA35ABF4F2C91848D90E0019628
:100240008F739927848FA689B7892C93A089B18948
:100250008C91837080648C93938D848D981306C0E9
:100260000288F389E02D80818F7D80830895EF924D
:10027000FF920F931F93CF93DF93EC0181E0888F60
:100280009B8D8C8D98131AC0E889F989808185FF30
:1002900015C09FB7F894EE89FF896083E889F989D2
:1002A00080818370806480839FBF81E090E0DF91D4
:1002B000CF911F910F91FF90EF900895F62E0B8D27
:1002C00010E00F5F1F4F0F731127E02E8C8D8E11E2
:1002D0000BC00FB607FCFACFE889F989808185FF4A
:1002E000F5CFCE01A2DFF2CFEB8DEC0FFD2FF11D8C
:1002F000E35AFF4FF0829FB7F8940B8FEA89FB898E
:1003000080818062D0CFCF93DF93EC01888D8823EA
:10031000B1F0AA89BB89E889F9898C9185FD03C070
:10032000808186FD0CC00FB607FCF7CF8C9185FF4E
:10033000F2CF808185FFEDCFCE0177DFEACFDF916D
:10034000CF91089580E090E0892B21F065DF811145
:100350000E94000080E090E0892B49F080E090E06E
:10036000892B29F00E94000081110E94000080E08A
:1003700090E0892B49F080E090E0892B29F00E94E1
:10038000000081110E94000080E090E0892B49F07C
:1003900080E090E0892B29F00E94000081110C94EC
:1003A00000000895FC0101900020E9F73197AF01AA
:1003B000481B590BBC0187ED93E0C4CE8F929F92EE
:1003C000AF92BF920F931F93CF93DF93CDB7DEB75A
:1003D000A1970FB6F894DEBF0FBECDBF19A2423071
:1003E00008F44AE08E010F5D1F4F842E912CB12C32
:1003F000A12CA501940123D2E62FB901CA01EA304C
:10040000ECF4E05DD801EE938D01232B242B252BFA
:1004100081F790E080E0109711F0CD01C3DFA19645
:100420000FB6F894DEBF0FBECDBFDF91CF911F9105
:100430000F91BF90AF909F908F900895E95CE2CFAD
:10044000CF93DF93AFDFEC0182E192E0ABDF8C0F63
:100450009D1FDF91CF910895CF92DF92EF92FF928F
:10046000CF93DF936B017C01F7FE1CC06DE287ED3B
:1004700093E0FDDEEC0166277727CB016C197D093F
:100480008E099F094AE09ADFC80FD91F82E192E0E6
:1004900089DF8C0F9D1FDF91CF91FF90EF90DF9050
:1004A000CF9008954AE08ADFEC01F0CFCF93DF933D
:1004B0004AE084DFEC0182E192E074DF8C0F9D1F43
:1004C000DF91CF9108951F920F920FB60F921124D2
:1004D0000BB60F922F933F934F935F936F937F933E
:1004E0008F939F93AF93BF93EF93FF9387ED93E029
:1004F0009CDEFF91EF91BF91AF919F918F917F9182
:100500006F915F914F913F912F910F900BBE0F9084
:100510000FBE0F901F9018951F920F920FB60F925B
:1005200011240BB60F922F938F939F93EF93FF930A
:10053000E091E703F091E8038081E091ED03F09111
:10054000EE0382FD1DC090818091F0038F5F8F7359
:100550002091F103821741F0E091F003F0E0E952BD
:10056000FC4F958F8093F003FF91EF919F918F91B6
:100570002F910F900BBE0F900FBE0F901F901895EC
:100580008081F2CF1F920F920FB60F9211242F93FA
:100590003F938F939F93AF93BF938091D303909199
:1005A000D403A091D503B091D6033091D20323E0B8
:1005B000230F2D3758F50196A11DB11D2093D203AD
:1005C0008093D3039093D403A093D503B093D60321
:1005D0008091CE039091CF03A091D003B091D1032D
:1005E0000196A11DB11D8093CE039093CF03A093DC
:1005F000D003B093D103BF91AF919F918F913F9161
:100600002F910F900FBE0F901F90189526E8230F83
:100610000296A11DB11DD2CF789484B5826084BDAD
:1006200084B5816084BD85B5826085BD85B58160F6
:1006300085BD80916E00816080936E001092810074
:10064000809181008260809381008091810081602F
:1006500080938100809180008160809380008091F0
:10066000B10084608093B1008091B000816080937C
:10067000B000809191008260809391008091910000
:1006800081608093910080919000816080939000C0
:100690008091A10082608093A1008091A10081607F
:1006A0008093A1008091A00081608093A000809140
:1006B00021018260809321018091210181608093DA
:1006C00021018091200181608093200180917A0036
:1006D000846080937A0080917A00826080937A00AF
:1006E00080917A00816080937A0080917A0080689E
:1006F00080937A001092C100E091E703F091E80343
:1007000082E08083E091E303F091E4031082E091C2
:10071000E503F091E6038FEC80831092EF03E09104
:10072000EB03F091EC0386E08083E091E903F09124
:10073000EA03808180618083E091E903F091EA031C
:10074000808188608083E091E903F091EA038081F1
:1007500080688083E091E903F091EA0380818F7DD6
:10076000808385E192E01EDE2FB7F8946091D30379
:100770007091D4038091D5039091D6032FBF96DE5C
:100780008EE192E05DDE60E279EF8EEF9FEF8EDE2C
:100790008DE492E055DE63E670E080E090E086DE76
:1007A00083E892E04DDE67E271E080E090E054DEA5
:1007B00083EE92E045DE69ED7EEF8FEF9FEF4CDE3A
:1007C00083E493E03DDE65E670E080E090E044DEA7
:1007D00089E893E035DE6BE97FEF8FEF9FEF3CDE3A
:1007E000B1DDFECFE7EDF3E01382128288EE93E0F5
:1007F000A0E0B0E084839583A683B78384E092E091
:100800009183808385EC90E09587848784EC90E0E9
:100810009787868780EC90E0918B808B81EC90E0CD
:10082000938B828B82EC90E0958B848B86EC90E0AE
:10083000978B868B118E128E138E148E0895A1E2E3
:100840001A2EAA1BBB1BFD010DC0AA1FBB1FEE1F4A
:10085000FF1FA217B307E407F50720F0A21BB30B95
:10086000E40BF50B661F771F881F991F1A9469F711
:1008700060957095809590959B01AC01BD01CF016D
:100880000895EE0FFF1F881F8BBF0790F691E02D94
:060890001994F894FFCF5B
:10089600000000003701A200CF0083010001DE0046
:1008A600F2000D0A004D696C6C69733A2000554CD4
:1008B6002076616C69642073756D2028342C32397A
:1008C600342C3030302C30303020554C202B203911
:1008D60030302C30303020554C293A2000697320B6
:1008E60073756D206F766572666C6F7720706F73A7
:1008F6007369626C653F20282034323934393637C3
:10090600323935554C202B20313030554C2029209A
:100916003A20006973206C6172676520706F736995
:100926007469766520737562737472616374696F36
:100936006E207573696E67206C6F6E6720706F73BB
:100946007369626C653F2028206C6F6E67206E208D
:100956003D2034323934393637323935554C202D2D
:100966002034323934393637303030554C2029204E
:100976003A20006973206C61726765206E65676155
:100986007469766520737562737472616374696FD6
:100996006E207573696E67206C6F6E6720706F735B
:1009A6007369626C653F2028206C6F6E67206E202D
:1009B6003D2034323934393637303030554C202DDD
:1009C6002034323934393637323935554C202920DE
:1009D6003A20006973204F766572666C6F776E20D9
:1009E6002D204C617267652C20706F737369746972
:1009F60076653F2028206C6F6E67206E203D203183
:100A06003030554C202D203432393439363732398E
:100A160035554C2029203A20006973204C617267B5
:100A260065202D204F766572666C6F776E2C206E72
:100A3600656761746976653F2028206C6F6E672054
:100A46006E203D2034323934393637323935554CFB
:0E0A5600202D20313030554C2029203A200030
:00000001FF
