:1000000002C1000021C100001FC100001DC100008D
:100010001BC1000019C1000017C1000015C100007C
:1000200013C1000011C100000FC100000DC100008C
:100030000BC1000009C1000007C1000005C100009C
:1000400003C1000001C10000FFC00000FDC00000AE
:10005000FBC00000F9C00000F7C000008BC2000028
:10006000F3C00000F1C00000EFC00000EDC00000D0
:10007000EBC00000E9C00000E7C00000E5C00000E0
:10008000E3C00000E1C00000DFC00000DDC00000F0
:10009000DBC00000D9C00000D7C00000D5C0000000
:1000A000D3C00000D1C00000CFC00000CDC0000010
:1000B000CBC00000C9C00000C7C00000C5C0000020
:1000C000C3C00000C1C00000BFC00000BDC0000030
:1000D000BBC00000B9C00000B7C00000B5C0000040
:1000E000B3C0000000002100240027002A002D00DA
:1000F0003000330001010000040107010A01000083
:100100002200250028002B002E00310034000201BF
:100110000000050108010B0100002000230026005B
:1001200029002C002F00320000010000030106010D
:10013000090105050505070508080808020202026D
:100140000A0A080804040404010101010101010173
:100150000303030303030303040707070C0C0C0C3E
:100160000C0C0C0C02020202060606060606060627
:100170000B0B0B0B0B0B0B0B0102102020080810B4
:100180002040102040800201020108040201010207
:1001900004081020408080402010080402018004E0
:1001A000020180402010080402010804020101023B
:1001B0000408102040800102040810204080000044
:1001C0000A0B02090C0D0E080703040100000000D1
:1001D000000000000000000000000000000000001F
:1001E00000000000000000000000121110000000DC
:1001F00000000000000000000000000000000000FF
:1002000000000000A20411241FBECFEFD1E2DEBF28
:10021000CDBF00E00CBF22E0A0E0B2E001C01D9223
:10022000AB36B207E1F711E0C3E0D1E000E005C072
:1002300021970109802FFE01DDD3C230D10780E074
:100240000807B1F747D2DEC3DBCE8150823108F018
:1002500059C0E82FF0E08827E05DFE4F8F4FCAC3FA
:1002600050015401420148014C01820157015D01D6
:10027000610167016B016F017501790182017D01E7
:1002800083018701809180008F778093800008959B
:10029000809180008F7DF9CF80918000877FF5CF9E
:1002A00084B58F7784BD089584B58F7DFBCF809111
:1002B000B0008F778093B00008958091B0008F7D5B
:1002C000F9CF809190008F7780939000089580916E
:1002D00090008F7DF9CF80919000877FF5CF80913E
:1002E000A0008F778093A00008958091A0008F7D5B
:1002F000F9CF8091A000877FF5CF809120018F7783
:10030000809320010895809120018F7DF9CF809105
:100310002001877FF5CFCF93DF93282F30E0F901BD
:10032000E254FE4F8491F901E858FE4FD491F9014F
:10033000EE5CFE4FC491CC2399F0811186DFEC2F47
:10034000F0E0EE0FFF1FE85EFE4FA591B491EC9137
:10035000ED2381E090E009F480E0DF91CF910895F2
:1003600080E090E0FACF1F93CF93DF93282F30E007
:10037000F901E254FE4F8491F901E858FE4FD491FF
:10038000F901EE5CFE4FC491CC23A1F0162F811130
:100390005CDFEC2FF0E0EE0FFF1FE250FF4FA59166
:1003A000B4918FB7F894EC91111108C0D095DE2369
:1003B000DC938FBFDF91CF911F910895DE2BF8CF93
:1003C0003FB7F8948091010290910202A09103023C
:1003D000B091040226B5A89B05C02F3F19F00196E5
:1003E000A11DB11D3FBFBA2FA92F982F8827BC018F
:1003F000CD01620F711D811D911D42E0660F771FB7
:10040000881F991F4A95D1F70895CF93DF93EC0188
:100410008989813029F0823081F0DF91CF91089570
:100420001A8E89859A85AB85BC850196A11DB11D63
:100430008D879E87AF87B88BF0CF8F8198852D8170
:100440003E81820F931F8530910514F598878F8325
:100450008F8198851816190624F084E090E098871B
:100460008F838F8198858230910551F1A4F4019793
:10047000E1F0888D998D092E000CAA0BBB0B4985E4
:100480005A856B857C85840F951FA61FB71FD0CF1B
:1004900081E090E0DBCF83309105F9F0049749F7D4
:1004A00061E0888160DF60E004C060E088815BDF3C
:1004B00061E0898158DF61E08A8155DF60E00AC030
:1004C00060E0888150DF61E089814DDF60E08A81F2
:1004D0004ADF61E08B8147DFCCCF61E0888143DF79
:1004E00060E0F2CF1F93CF93DF93EC012FB7F89426
:1004F0008091050290910602A0910702B091080236
:100500002FBF88839983AA83BB834C815D816E81D1
:100510007F8184179507A607B70728F01985113042
:1005200031F01230C1F0DF91CF911F91089588858D
:10053000F2DE488159816A817B81892BB1F41A8767
:1005400082E089874C5E5F4F6F4F7F4F4C835D83A6
:100550006E837F83E8CF8885DEDE488159816A819A
:100560007B81019711F481E0ECCF4F5F5F4F6F4FBC
:100570007F4FECCF1F920F920FB60F9211242F9343
:100580003F938F939F93AF93BF9380910502909178
:100590000602A0910702B09108023091000223E008
:1005A000230F2D3758F50196A11DB11D2093000290
:1005B0008093050290930602A0930702B09308026D
:1005C0008091010290910202A0910302B091040275
:1005D0000196A11DB11D8093010290930202A09388
:1005E0000302B0930402BF91AF919F918F913F910D
:1005F0002F910F900FBE0F901F90189526E8230F94
:100600000296A11DB11DD2CFCF93DF9390E0FC01E4
:10061000E858FE4F24918E5C9E4FFC018491882304
:10062000D1F090E0880F991FFC01EC51FF4FA5918C
:10063000B491FC01E250FF4FC591D491623071F446
:100640009FB7F8943C91822F809583238C93E88107
:100650002E2B28839FBFDF91CF9108958FB7F894F9
:10066000EC912E2B2C938FBFF6CFEF920F93CF935D
:10067000DF93EC018E2DE1E0F0E0FE83ED83F8875F
:10068000EF8391E0998BEAE0F0E0FB8BEA8B1D8A27
:100690001C8A1F8A1E8AE4E6F0E0F98FE88F1A8E22
:1006A000688349832A830B83EC8261E0ADDF61E0DC
:1006B0008881AADF61E08981A7DF61E08A81A4DF08
:1006C00061E08B81A1DF61E08C81DF91CF910F919F
:1006D000EF9049CE789484B5826084BD84B5816002
:1006E00084BD85B5826085BD85B5816085BD8091FD
:1006F0006E00816080936E00109281008091810075
:10070000826080938100809181008160809381006C
:10071000809180008160809380008091B10084602E
:100720008093B1008091B00081608093B00080918F
:10073000910082608093910080919100816080930C
:100740009100809190008160809390008091A10041
:1007500082608093A1008091A10081608093A100BC
:100760008091A00081608093A0008091210182602F
:1007700080932101809121018160809321018091EA
:10078000200181608093200180917A0084608093B1
:100790007A0080917A00826080937A0080917A005A
:1007A000816080937A0080917A00806880937A00DB
:1007B0001092C10089EA90E090934E0280934D021E
:1007C00080E0C82E80E0D82ED2E0C1E001E010E049
:1007D000EE24EA94FE2C2FB7F894809105029091B4
:1007E0000602A0910702B09108022FBF8093590220
:1007F00090935A02A0935B02B0935C0240915D0219
:1008000050915E0260915F027091600284179507BB
:10081000A607B70718F080E592E0F7DD2FB7F89448
:100820008091050290910602A0910702B091080202
:100830002FBF80933E0290933F02A0934002B0935B
:1008400041024091420250914302609144027091F2
:10085000450284179507A607B70718F085E392E0CD
:10086000D4DD8AE292E03EDE8FE192E03BDE84E17D
:1008700092E038DE89E092E035DE80913402882310
:1008800059F01092340280916A02882309F446C01C
:10089000C093610210926A0280912902882361F05C
:1008A0001092290280915502909156020197D9F534
:1008B000F0925602E092550280911E02882351F078
:1008C00010921E0280914F02882391F1C09346023C
:1008D00010924F0280911302882361F0109213024C
:1008E00080913A0290913B02019739F5F0923B02D8
:1008F000E0923A0265DD4B015C0162DD681979091D
:100900008A099B09683E734081059105B0F3C114C3
:10091000D10409F460CF0E9400005DCFD093610242
:10092000C0936A02B9CF1093560200935502C4CF08
:10093000D0934602C0934F02CDCF10933B02009359
:100940003A02D8CFEF920F931F93CF9385E0E82E12
:1009500004E023E042E061E080E592E086DE9CE096
:10096000E92E0BE02AE049E068E085E392E07DDED5
:100970000AE212E0C1E0F801C18712868EE08087AA
:1009800062E042DEF801C187148215821682178266
:100990000FE112E0F801C18712868FE0808762E0E4
:1009A00033DEF801C187148215821682178204E1B2
:1009B00012E0F801C187128687E0808762E024DEBA
:1009C000F801C187148215821682178209E012E0AD
:1009D000F801C187128686E0808762E015DEF801A3
:1009E000C1871482158216821782CF911F910F91B1
:1009F000EF900895EE0FFF1F881F8BBF0790F691B1
:080A0000E02D1994F894FFCFDA
:00000001FF
