:1000000002C100002EC100002CC100002AC1000066
:1000100028C1000026C1000024C1000022C1000048
:1000200020C100001EC100001CC100001AC1000058
:1000300018C1000016C1000014C1000012C1000068
:1000400010C100000EC100000CC100000AC1000078
:1000500008C1000006C1000004C1000058C3000030
:1000600000C100001EC30000F3C20000FAC000007F
:10007000F8C00000F6C00000F4C00000F2C00000AC
:10008000F0C00000EEC00000ECC00000EAC00000BC
:10009000E8C00000E6C00000E4C00000E2C00000CC
:1000A000E0C00000DEC00000DCC00000DAC00000DC
:1000B000D8C00000D6C00000D4C00000D2C00000EC
:1000C000D0C00000CEC00000CCC00000CAC00000FC
:1000D000C8C00000C6C00000C4C00000C2C000000C
:1000E000C0C00000000020002300260029002C00D2
:1000F0002F00320000010000030106010901000089
:100100000A0B02090C0D0E08070304010000000091
:1001100000000000000000000000000000000000DF
:10012000000000000000000000001211100000009C
:1001300000000000000000000000000000000000BF
:100140000000000000002200250028002B002E00E7
:100150003100340002010000050108010B0100001C
:100160002100240027002A002D0030003300010167
:100170000000040107010A01050505050705080837
:100180000808020202020A0A080804040404010121
:100190000101010101010303030303030303040736
:1001A00007070C0C0C0C0C0C0C0C020202020606CD
:1001B0000606060606060B0B0B0B0B0B0B0B0102C0
:1001C0001020200808102040102040800201020169
:1001D0000804020101020408102040808040201021
:1001E000080402018004020180402010080402017A
:1001F00008040201010204081020408001020408E2
:1002000010204080F90311241FBECFEFD1E2DEBFE2
:10021000CDBF00E00CBF12E0A0E0B2E0E8EAFAE0F7
:1002200000E00BBF02C007900D92AA33B107D9F7C7
:1002300022E0AAE3B2E001C01D92A63FB207E1F7B7
:1002400011E0C3E0D1E000E005C021970109802F53
:10025000FE0120D4C230D10780E00807B1F715D3E2
:1002600021C4CECEAF92BF92CF92DF92EF92FF9297
:100270000F931F93CF93DF936C017B018B01040FCE
:10028000151FEB015E01AE18BF08C017D10759F06A
:100290006991D601ED91FC910190F081E02DC601AC
:1002A0001995892B79F7C501DF91CF911F910F9196
:1002B000FF90EF90DF90CF90BF90AF900895FC013A
:1002C000538D448D252F30E0842F90E0821B930BBB
:1002D000541710F0CF96089501970895FC01918D61
:1002E000828D981761F0A28DAE0FBF2FB11D5D9664
:1002F0008C91928D9F5F9F73928F90E008958FEF06
:100300009FEF0895FC01918D828D981731F0828DB9
:10031000E80FF11D858D90E008958FEF9FEF089510
:10032000FC01918D228D892F90E0805C9F4F821B74
:1003300091098F739927089583E492E0F1DF21E01A
:10034000892B09F420E0822F0895FC01A48DA80FC9
:10035000B92FB11DA35ABF4F2C91848D90E0019607
:100360008F739927848FA689B7892C93A089B18927
:100370008C91837080648C93938D848D981306C0C8
:100380000288F389E02D80818F7D80830895EF922C
:10039000FF920F931F93CF93DF93EC0181E0888F3F
:1003A0009B8D8C8D98131AC0E889F989808185FF0F
:1003B00015C09FB7F894EE89FF896083E889F989B1
:1003C00080818370806480839FBF81E090E0DF91B3
:1003D000CF911F910F91FF90EF900895F62E0B8D06
:1003E00010E00F5F1F4F0F731127E02E8C8D8E11C1
:1003F0000BC00FB607FCFACFE889F989808185FF29
:10040000F5CFCE01A2DFF2CFEB8DEC0FFD2FF11D6A
:10041000E35AFF4FF0829FB7F8940B8FEA89FB896C
:1004200080818062D0CFCF93DF93EC01888D8823C9
:10043000B1F0AA89BB89E889F9898C9185FD03C04F
:10044000808186FD0CC00FB607FCF7CF8C9185FF2D
:10045000F2CF808185FFEDCFCE0177DFEACFDF914C
:10046000CF91089580E090E0892B21F065DF811124
:100470000E94000080E090E0892B49F080E090E04D
:10048000892B29F00E94000081110E94000080E069
:1004900090E0892B49F080E090E0892B29F00E94C0
:1004A000000081110E94000080E090E0892B49F05B
:1004B00080E090E0892B29F00E94000081110C94CB
:1004C00000000895282F30E0F901E250FF4F949189
:1004D000F901E254FE4F449128583E4FF90124910E
:1004E000222309F476C0992309F191509231F0F456
:1004F000E92FF0E08827E158FD4F8F4FCBC2AE02C5
:10050000B2029102A602AA029602B502BB02BF0283
:10051000C502C902CD02D302D7029602DB02E10274
:10052000E502809180008F7780938000E22FF0E0D9
:10053000EE0FFF1FEC51FF4FA591B491EC91E42316
:1005400081E090E009F047C080E00895809180004C
:100550008F7DEACF80918000877FE6CF84B58F774B
:1005600084BDE4CF84B58F7DFBCF8091B0008F77C1
:100570008093B000DBCF8091B0008F7DF9CF809168
:1005800090008F7780939000D1CF809190008F7DE5
:10059000F9CF80919000877FF5CF8091A0008F7771
:1005A0008093A000C3CF8091A0008F7DF9CF809170
:1005B000A000877FF5CF809120018F778093200165
:1005C000B5CF809120018F7DF9CF80912001877F69
:1005D000F5CF80E090E008951F93CF93DF93EC0177
:1005E0001985113031F01230C1F0DF91CF911F9198
:1005F0000895888567DF488159816A817B81892BCD
:10060000B1F41A8782E089874C5E5F4F6F4F7F4F4E
:100610004C835D836E837F83E8CF888553DF488179
:1006200059816A817B81019711F481E0ECCF4F5FA2
:100630005F4F6F4F7F4FECCFFC0101900020E9F737
:100640003197AF01481B590BBC0183E492E00ACEFD
:100650001F920F920FB60F9211240BB60F922F9389
:100660003F934F935F936F937F938F939F93AF933A
:10067000BF93EF93FF9383E492E067DEFF91EF91E6
:10068000BF91AF919F918F917F916F915F914F91AA
:100690003F912F910F900BBE0F900FBE0F901F90A8
:1006A00018951F920F920FB60F9211240BB60F924E
:1006B0002F938F939F93EF93FF93E0915302F091C9
:1006C00054028081E0915902F0915A0282FD1DC0CE
:1006D000908180915C028F5F8F7320915D02821701
:1006E00041F0E0915C02F0E0ED5BFD4F958F80936F
:1006F0005C02FF91EF919F918F912F910F900BBE14
:100700000F900FBE0F901F9018958081F2CF1F920F
:100710000F920FB60F9211242F933F938F939F93B5
:10072000AF93BF9380913F0290914002A09141020C
:10073000B091420230913E0223E0230F2D3758F54D
:100740000196A11DB11D20933E0280933F0290931C
:100750004002A0934102B093420280913A029091EC
:100760003B02A0913C02B0913D020196A11DB11D3A
:1007700080933A0290933B02A0933C02B0933D02D7
:10078000BF91AF919F918F913F912F910F900FBE8D
:100790000F901F90189526E8230F0296A11DB11DFA
:1007A000D2CFCF93DF9390E0FC01E254FE4F24912F
:1007B00088589E4FFC0184918823C1F090E0880FF7
:1007C000991FFC01E25AFE4FC591D491FC01EC5BEC
:1007D000FE4FA591B4919FB7F8943881822F8095F0
:1007E00083238883EC91E22BEC939FBFDF91CF9121
:1007F00008951F93CF93DF93E3E4F2E01382128214
:1008000088EE93E0A0E0B0E084839583A683B7836D
:1008100084E092E09183808385EC90E095878487E3
:1008200084EC90E09787868780EC90E0918B808BBA
:1008300081EC90E0938B828B82EC90E0958B848BA3
:1008400086EC90E0978B868B118E128E138E148E11
:10085000CBEED2E011E019871A8688E08887A1DF05
:1008600019871C821D821E821F82C0EED2E019876A
:100870001A8689E0888795DF19871C821D821E826F
:100880001F82DF91CF911F910895789484B5826083
:1008900084BD84B5816084BD85B5826085BD85B524
:1008A000816085BD80916E00816080936E001092A2
:1008B000810080918100826080938100809181001D
:1008C00081608093810080918000816080938000AE
:1008D0008091B10084608093B1008091B00081600C
:1008E0008093B0008091910082608093910080910C
:1008F000910081608093910080919000816080934D
:1009000090008091A10082608093A1008091A1005D
:1009100081608093A1008091A00081608093A000FD
:100920008091210182608093210180912101816069
:10093000809321018091200181608093200180912A
:100940007A00846080937A0080917A00826080933C
:100950007A0080917A00816080937A0080917A0099
:10096000806880937A001092C100E0915302F09168
:10097000540282E08083E0914F02F0915002108295
:10098000E0915102F09152028FEC808310925B0251
:10099000E0915702F091580286E08083E091550281
:1009A000F0915602808180618083E0915502F09140
:1009B0005602808188608083E0915502F091560252
:1009C000808180688083E0915502F0915602808199
:1009D0008F7D80832FB7F89480913F0290914002E1
:1009E000A0914102B09142022FBF8093EB029093FD
:1009F000EC02A093ED02B093EE024091EF02509111
:100A0000F0026091F1027091F20284179507A60737
:100A1000B70718F08BEE92E0DFDD2FB7F8948091E6
:100A20003F0290914002A0914102B09142022FBF3B
:100A30008093E0029093E102A093E202B093E3027C
:100A40004091E4025091E5026091E6027091E70264
:100A500084179507A607B70718F080EE92E0BCDD73
:100A60008091F502882341F01092F50282E192E034
:100A7000E3DD82E292E0E0DD8091EA02882341F04A
:100A80001092EA0285E292E0D7DD82E292E0D4DDC4
:100A9000E9DCA0CFEE0FFF1F881F8BBF0790F691F8
:080AA000E02D1994F894FFCF3A
:100AA80000000000C70132015F01130290016E01CE
:100AB8008201446F696E6720736F6D657468696E33
:100AC80067000D0A00446F696E6720736F6D657467
:0A0AD80068696E6720656C736500A5
:00000001FF
