:1000000002C1000021C100001FC100001DC100008D
:100010001BC1000019C1000017C1000015C100007C
:1000200013C1000011C100000FC100000DC100008C
:100030000BC1000009C1000007C1000005C100009C
:1000400003C1000001C10000FFC00000FDC00000AE
:10005000FBC00000F9C00000F7C000007FC3000033
:10006000F3C00000F1C00000EFC00000EDC00000D0
:10007000EBC00000E9C00000E7C00000E5C00000E0
:10008000E3C00000E1C00000DFC00000DDC00000F0
:10009000DBC00000D9C00000D7C00000D5C0000000
:1000A000D3C00000D1C00000CFC00000CDC0000010
:1000B000CBC00000C9C00000C7C00000C5C0000020
:1000C000C3C00000C1C00000BFC00000BDC0000030
:1000D000BBC00000B9C00000B7C00000B5C0000040
:1000E000B3C0000000002100240027002A002D00DA
:1000F0003000330001010000040107010A01000083
:100100002200250028002B002E00310034000201BF
:100110000000050108010B0100002000230026005B
:1001200029002C002F00320000010000030106010D
:10013000090105050505070508080808020202026D
:100140000A0A080804040404010101010101010173
:100150000303030303030303040707070C0C0C0C3E
:100160000C0C0C0C02020202060606060606060627
:100170000B0B0B0B0B0B0B0B0102102020080810B4
:100180002040102040800201020108040201010207
:1001900004081020408080402010080402018004E0
:1001A000020180402010080402010804020101023B
:1001B0000408102040800102040810204080000044
:1001C0000A0B02090C0D0E080703040100000000D1
:1001D000000000000000000000000000000000001F
:1001E00000000000000000000000121110000000DC
:1001F00000000000000000000000000000000000FF
:10020000000000003E0611241FBECFEFD1E2DEBF8A
:10021000CDBF00E00CBF22E0A0E0B2E001C01D9223
:10022000A43AB207E1F711E0C3E0D1E000E005C075
:1002300021970109802FFE01B3D5C230D10780E09C
:100240000807B1F73BD3C8C5DBCE8150823108F037
:1002500059C0E82FF0E08827E05DFE4F8F4FA0C522
:1002600050015401420148014C01820157015D01D6
:10027000610167016B016F017501790182017D01E7
:1002800083018701809180008F778093800008959B
:10029000809180008F7DF9CF80918000877FF5CF9E
:1002A00084B58F7784BD089584B58F7DFBCF809111
:1002B000B0008F778093B00008958091B0008F7D5B
:1002C000F9CF809190008F7780939000089580916E
:1002D00090008F7DF9CF80919000877FF5CF80913E
:1002E000A0008F778093A00008958091A0008F7D5B
:1002F000F9CF8091A000877FF5CF809120018F7783
:10030000809320010895809120018F7DF9CF809105
:100310002001877FF5CFCF93DF93282F30E0F901BD
:10032000E254FE4F8491F901E858FE4FD491F9014F
:10033000EE5CFE4FC491CC2399F0811186DFEC2F47
:10034000F0E0EE0FFF1FE85EFE4FA591B491EC9137
:10035000ED2381E090E009F480E0DF91CF910895F2
:1003600080E090E0FACF1F93CF93DF93282F30E007
:10037000F901E254FE4F8491F901E858FE4FD491FF
:10038000F901EE5CFE4FC491CC23A1F0162F811130
:100390005CDFEC2FF0E0EE0FFF1FE250FF4FA59166
:1003A000B4918FB7F894EC91111108C0D095DE2369
:1003B000DC938FBFDF91CF911F910895DE2BF8CF93
:1003C000CF93DF93CFE8D2E0ED85FE8560E08085B6
:1003D000CADFEF85F88960E08085C5DFE989FA89A1
:1003E00060E08085C0DFEB89FC8960E08085DF917B
:1003F000CF91B9CFCF93DF93EC018EE388838FE366
:10040000898380E48A8381E48B8382E48C8383E420
:100410008D8384E48E83688761E08EE3E9D161E0B7
:100420008981E6D161E08A81E3D161E08B81E0D10D
:1004300061E08C81DDD161E08D81DAD161E08E8176
:10044000D7D161E08885DF91CF91D2C13FB7F894D1
:100450008091250290912602A0912702B091280256
:1004600026B5A89B05C02F3F19F00196A11DB11D0F
:100470003FBFBA2FA92F982F8827BC01CD01620F4B
:10048000711D811D911D42E0660F771F881F991F06
:100490004A95D1F70895CF93DF93EC01888181309D
:1004A00029F0823081F0DF91CF9108951A8E8981F1
:1004B0009A81AB81BC810196A11DB11D8D839E8364
:1004C000AF83B887F0CF8C899D8901969D8B8C8BEB
:1004D0002A893B898217930739F4888D998D019673
:1004E000998F888F1D8A1C8A888999892E853F85D6
:1004F000820F931F8530910514F5998B888B88891D
:1005000099891816190624F084E090E0998B888B5D
:10051000888999898230910551F1A4F40197E1F01D
:100520008E899F89092E000CAA0BBB0B49815A8129
:100530006B817C81840F951FA61FB71FBFCF81E001
:1005400090E0DBCF83309105F9F0049749F761E043
:10055000898509DF60E004C060E0898504DF61E02F
:100560008A8501DF61E08B85FEDE60E00AC060E025
:100570008985F9DE61E08A85F6DE60E08B85F3DE51
:1005800061E08C85F0DECCCF61E08985ECDE60E057
:10059000F2CFCF93DF936A3008F095C0EC01E62FDD
:1005A000F0E08827EA52FD4F8F4FFAC3E002FA02CB
:1005B0000B031F032D033B034603570359035E033D
:1005C00061E08881D0DE61E08981CDDE61E08A81F1
:1005D000CADE61E08B81C7DE61E08C81C4DE61E050
:1005E0008D81C1DE60E08E81BEDE61E08885DF91B5
:1005F000CF91B9CE60E08881B6DE61E08981B3DE5B
:1006000061E08A81B0DE60E08B81ADDE60E08C81EC
:10061000AADE60E0E5CF61E08881A5DE61E0898146
:10062000A2DE60E08A819FDE61E08B819CDE61E07A
:100630008C8199DE60E08D8196DE61E0D4CF61E04F
:10064000888191DE61E089818EDE61E08A818BDEC6
:1006500061E08B8188DE60E0EBCF60E0888183DE43
:1006600061E0898180DE61E08A817DDE60E08B81EE
:100670007ADE60E018C061E0888175DE60E0898123
:1006800072DE61E08A816FDE61E0F1CF61E0888136
:100690006ADE60E0898167DE61E08A8164DE61E0B4
:1006A0008B8161DE61E08C815EDE61E0C4CF61E060
:1006B000A2CF61E0888157DE61E0ECCF61E0888104
:1006C00052DE61E0DCCFDF91CF9108951F93CF938D
:1006D000DF93EC012FB7F8948091290290912A02C0
:1006E000A0912B02B0912C022FBF89839A83AB83F8
:1006F000BC834D815E816F81788584179507A6073D
:10070000B70728F01881113031F01230E9F0DF918D
:10071000CF911F9108958985FEDD49815A816B81B2
:100720007C81019749F44F5F5F4F6F4F7F4F4D833F
:100730005E836F837887EBCF1A8782E088834C5E75
:100740005F4F6F4F7F4FF3CF8985E5DD49815A8138
:100750006B817C81892B39F381E0F0CF1F920F925E
:100760000FB60F9211242F933F938F939F93AF93C4
:10077000BF938091290290912A02A0912B02B091FF
:100780002C023091240223E0230F2D3758F50196D7
:10079000A11DB11D209324028093290290932A0267
:1007A000A0932B02B0932C028091250290912602F7
:1007B000A0912702B09128020196A11DB11D80933E
:1007C000250290932602A0932702B0932802BF919E
:1007D000AF919F918F913F912F910F900FBE0F90EE
:1007E0001F90189526E8230F0296A11DB11DD2CFA8
:1007F000CF93DF9390E0FC01E858FE4F24918E5C8C
:100800009E4FFC0184918823D1F090E0880F991FBE
:10081000FC01EC51FF4FA591B491FC01E250FF4F58
:10082000C591D491623071F49FB7F8943C91822FB6
:10083000809583238C93E8812E2B28839FBFDF91A3
:10084000CF9108958FB7F894EC912E2B2C938FBFF6
:10085000F6CFEF920F93CF93DF93EC018E2D91E0C3
:100860009883E1E0F0E0FF87EE87F98BE88BEAE020
:10087000F0E0FB8BEA8B1D8A1C8AE4E6F0E0FF8B3C
:10088000EE8B198E188E1A8E69874A872B870C87F4
:10089000ED8661E0ADDF61E08985AADF61E08A85F0
:1008A000A7DF61E08B85A4DF61E08C85A1DF61E0DB
:1008B0008D85DF91CF910F91EF9055CD789484B5D0
:1008C000826084BD84B5816084BD85B5826085BD4C
:1008D00085B5816085BD80916E00816080936E00DA
:1008E00010928100809181008260809381008091CC
:1008F000810081608093810080918000816080937D
:1009000080008091B10084608093B1008091B0003C
:1009100081608093B000809191008260809391000B
:10092000809191008160809391008091900081601E
:10093000809390008091A10082608093A1008091BB
:10094000A10081608093A1008091A00081608093CC
:10095000A00080912101826080932101809121017A
:10096000816080932101809120018160809320012A
:1009700080917A00846080937A0080917A0082600E
:1009800080937A0080917A00816080937A008091D0
:100990007A00806880937A001092C10089EA90E022
:1009A0009093700280936F0289E08093980286E0B2
:1009B0008093990282E080939A0284E080939B0264
:1009C00055245394CAE0D0E094E6292E312C28EE29
:1009D000622E23E0722E30E0C32E30E0D32E01E0F1
:1009E00010E0EE24EA94FE2C82E0482E2FB7F89413
:1009F0008091290290912A02A0912B02B0912C02A1
:100A00002FBF8093750290937602A0937702B093E4
:100A100078024091790250917A0260917B02709144
:100A20007C0284179507A607B70718F084E792E0C1
:100A300032DD2FB7F8948091290290912A02A0917B
:100A40002B02B0912C022FBF80935A0290935B022D
:100A5000A0935C02B0935D0240915E0250915F02F0
:100A6000609160027091610284179507A607B7072D
:100A700018F089E592E00FDD8EE492E027DE83E452
:100A800092E024DE88E392E021DE8DE292E01EDE39
:100A90002FB7F8948091290290912A02A0912B02FD
:100AA000B0912C022FBF8093900290939102A0935B
:100AB0009202B093930240919402509195026091FA
:100AC00096027091970284179507A607B70750F012
:100AD00080918F02823009F4A5C008F075C0813082
:100AE00009F482C080915802882359F0109258026C
:100AF00080918E02882309F4ADC050927402109246
:100B00008E0280914D02882369F010924D028091EF
:100B1000820290918302019709F0A1C0F0928302B2
:100B2000E092820280914202882359F010924202A0
:100B300080917302882309F497C050925902109251
:100B4000730280913702882369F0109237028091F6
:100B5000670290916802019709F08BC0F0926802D9
:100B6000E092670220918C0230918D02C901BE0192
:100B700004D180939802CB01BE01FFD080939902EB
:100B8000C901B101FAD0CB01BE01F7D080939A021E
:100B9000C901B301F2D0CB01BE01EFD080939B021B
:100BA00055DC4B015C0152DC681979098A099B0903
:100BB000683E734081059105B0F3C114D10409F476
:100BC00015CF0E94000010CF8330C1F1843009F0AE
:100BD00089CFF6DB60919B028091A2029091A302E3
:100BE000D8DC50928F020AC0EBDB609198028091B2
:100BF0009C0290919D02CDDC40928F0280919002E8
:100C000090919102A0919202B09193024496A11DFD
:100C1000B11D8093940290939502A0939602B09395
:100C2000970260CFCDDB6091990280919E029091F6
:100C30009F02AFDC23E020938F02E0CFC1DB609105
:100C40009A028091A0029091A102A3DC84E080939B
:100C50008F02D4CF4092740250928E0252CF1093E2
:100C60008302009382025ECF409259025092730237
:100C700068CF109368020093670274CFEF920F93CE
:100C80001F93CF9385E0E82E04E023E042E061E08B
:100C900084E792E0DEDD9CE0E92E0BE02AE049E00B
:100CA00068E089E592E0D5DD0EE412E0C1E0F801EC
:100CB000C08312868EE0818762E09ADDF801C083EE
:100CC000158216821782108603E412E0F801C083B1
:100CD00012868FE0818762E08BDDF801C083158288
:100CE00016821782108608E312E0F801C08312868C
:100CF00087E0818762E07CDDF801C083158216827F
:100D0000178210860DE212E0F801C083128686E099
:100D1000818762E06DDDF801C0831582168217823B
:100D2000108667E38BE192E065DB68E382E192E0A5
:100D300061DB69E389E092E05DDB6AE380E092E0F9
:100D400059DBEFE8F2E0C083118612861386148621
:100D50008BE192E09687858782E192E0908B87878E
:100D600089E092E0928B818B80E092E0948B838B80
:100D7000CF911F910F91EF90089597FB072E16F4D6
:100D8000009406D077FD08D013D007FC05D03EF4C0
:100D9000909581959F4F0895709561957F4F089527
:100DA000EE0FFF1F881F8BBF0790F691E02D19945F
:100DB000AA1BBB1B51E107C0AA1FBB1FA617B70781
:100DC00010F0A61BB70B881F991F5A95A9F780959D
:0C0DD0009095BC01CD010895F894FFCF70
:00000001FF
