:1000000072C0000091C000008FC000008DC00000D1
:100010008BC0000089C0000087C0000085C00000C0
:1000200083C0000081C000007FC000007DC00000D0
:100030007BC0000079C0000077C0000075C00000E0
:1000400073C0000071C000006FC000006DC00000F0
:100050006BC0000069C0000067C0000066C00000FF
:1000600063C0000061C000005FC000005DC0000010
:100070005BC0000059C0000057C0000055C0000020
:1000800053C0000051C000004FC000004DC0000030
:100090004BC0000049C0000047C0000045C0000040
:1000A00043C0000041C000003FC000003DC0000050
:1000B0003BC0000039C0000037C0000035C0000060
:1000C00033C0000031C000002FC000002DC0000070
:1000D0002BC0000029C0000027C0000025C0000080
:1000E00023C00000880111241FBECFEFD1E2DEBF84
:1000F000CDBF00E00CBF22E0A0E0B2E001C01D9245
:10010000A431B207E1F710E0C3E7D0E000E005C09A
:1001100021970109802FFE0103D1C237D10780E06A
:100120000807B1F74CD004C16BCF1F920F920FB6E6
:100130000F9211242F933F938F939F93AF93BF936D
:100140008091050290910602A0910702B0910802E9
:100150003091040223E0230F2D3758F50196A11D9D
:10016000B11D209304028093050290930602A09390
:100170000702B09308028091000290910102A091C1
:100180000202B09103020196A11DB11D80930002ED
:1001900090930102A0930202B0930302BF91AF912A
:1001A0009F918F913F912F910F900FBE0F901F90B5
:1001B000189526E8230F0296A11DB11DD2CF789481
:1001C00084B5826084BD84B5816084BD85B582605C
:1001D00085BD85B5816085BD80916E00816080930D
:1001E0006E00109281008091810082608093810076
:1001F0008091810081608093810080918000816086
:10020000809380008091B10084608093B1008091E0
:10021000B00081608093B0008091910082608093F3
:100220009100809191008160809391008091900075
:100230008160809390008091A10082608093A100F2
:100240008091A10081608093A1008091A0008160D5
:100250008093A00080912101826080932101809190
:100260002101816080932101809120018160809330
:10027000200180917A00846080937A0080917A00D6
:10028000826080937A0080917A00816080937A0006
:1002900080917A00806880937A001092C100C0E05B
:1002A000D0E02FB7F8948091050290910602A091BA
:1002B0000702B09108022FBF80930A0290930B02AD
:1002C000A0930C02B0930D0240910E0250910F02C8
:1002D000609110027091110284179507A607B70765
:1002E00030F020910902213039F0223029F0209796
:1002F000C1F20E940000D5CF4496A11DB11D80938C
:100300000E0290930F02A0931002B0931102EFCF50
:10031000E9E0F2E081E08083818782E082870895CE
:10032000EE0FFF1F881F8BBF0790F691E02D1994E9
:04033000F894FFCF6F
:00000001FF
